{
  "contractName": "StarRelay",
  "abi": [
    {
      "anonymous": false,
      "inputs": [
        {
          "indexed": true,
          "internalType": "bytes32",
          "name": "id",
          "type": "bytes32"
        }
      ],
      "name": "ChainlinkCancelled",
      "type": "event"
    },
    {
      "anonymous": false,
      "inputs": [
        {
          "indexed": true,
          "internalType": "bytes32",
          "name": "id",
          "type": "bytes32"
        }
      ],
      "name": "ChainlinkFulfilled",
      "type": "event"
    },
    {
      "anonymous": false,
      "inputs": [
        {
          "indexed": true,
          "internalType": "bytes32",
          "name": "id",
          "type": "bytes32"
        }
      ],
      "name": "ChainlinkRequested",
      "type": "event"
    },
    {
      "anonymous": false,
      "inputs": [
        {
          "indexed": true,
          "internalType": "uint256",
          "name": "challengeId",
          "type": "uint256"
        },
        {
          "indexed": true,
          "internalType": "address",
          "name": "winner",
          "type": "address"
        },
        {
          "indexed": false,
          "internalType": "string",
          "name": "ipfsHash",
          "type": "string"
        },
        {
          "indexed": false,
          "internalType": "uint256",
          "name": "totalFund",
          "type": "uint256"
        }
      ],
      "name": "ChallengeResolved",
      "type": "event"
    },
    {
      "anonymous": false,
      "inputs": [
        {
          "indexed": true,
          "internalType": "address",
          "name": "beneficiary",
          "type": "address"
        },
        {
          "indexed": true,
          "internalType": "address",
          "name": "creator",
          "type": "address"
        },
        {
          "indexed": true,
          "internalType": "address",
          "name": "winner",
          "type": "address"
        },
        {
          "indexed": false,
          "internalType": "uint256",
          "name": "totalFund",
          "type": "uint256"
        }
      ],
      "name": "FundsSplitted",
      "type": "event"
    },
    {
      "anonymous": false,
      "inputs": [
        {
          "indexed": true,
          "internalType": "uint256",
          "name": "challengeId",
          "type": "uint256"
        },
        {
          "indexed": true,
          "internalType": "address",
          "name": "creator",
          "type": "address"
        },
        {
          "indexed": true,
          "internalType": "address",
          "name": "beneficiary",
          "type": "address"
        },
        {
          "indexed": false,
          "internalType": "uint256",
          "name": "endTimestamp",
          "type": "uint256"
        }
      ],
      "name": "NewChallengeStarted",
      "type": "event"
    },
    {
      "anonymous": false,
      "inputs": [
        {
          "indexed": true,
          "internalType": "uint256",
          "name": "challengeId",
          "type": "uint256"
        },
        {
          "indexed": true,
          "internalType": "address",
          "name": "challenger",
          "type": "address"
        },
        {
          "indexed": false,
          "internalType": "string",
          "name": "ipfsHash",
          "type": "string"
        }
      ],
      "name": "NewChallengerJumpedIn",
      "type": "event"
    },
    {
      "anonymous": false,
      "inputs": [
        {
          "indexed": false,
          "internalType": "string",
          "name": "message",
          "type": "string"
        }
      ],
      "name": "Test",
      "type": "event"
    },
    {
      "inputs": [],
      "name": "beneficiaryPercentage",
      "outputs": [
        {
          "internalType": "uint256",
          "name": "",
          "type": "uint256"
        }
      ],
      "stateMutability": "view",
      "type": "function",
      "constant": true
    },
    {
      "inputs": [
        {
          "internalType": "uint256",
          "name": "",
          "type": "uint256"
        }
      ],
      "name": "challenges",
      "outputs": [
        {
          "internalType": "bool",
          "name": "isPublic",
          "type": "bool"
        },
        {
          "internalType": "bool",
          "name": "isActive",
          "type": "bool"
        },
        {
          "internalType": "uint256",
          "name": "totalFund",
          "type": "uint256"
        },
        {
          "internalType": "uint256",
          "name": "minEntryFee",
          "type": "uint256"
        },
        {
          "internalType": "uint256",
          "name": "endTimestamp",
          "type": "uint256"
        },
        {
          "internalType": "address payable",
          "name": "creator",
          "type": "address"
        },
        {
          "internalType": "address payable",
          "name": "beneficiary",
          "type": "address"
        }
      ],
      "stateMutability": "view",
      "type": "function",
      "constant": true
    },
    {
      "inputs": [],
      "name": "creatorPercentage",
      "outputs": [
        {
          "internalType": "uint256",
          "name": "",
          "type": "uint256"
        }
      ],
      "stateMutability": "view",
      "type": "function",
      "constant": true
    },
    {
      "inputs": [],
      "name": "fee",
      "outputs": [
        {
          "internalType": "uint256",
          "name": "",
          "type": "uint256"
        }
      ],
      "stateMutability": "view",
      "type": "function",
      "constant": true
    },
    {
      "inputs": [],
      "name": "jobId",
      "outputs": [
        {
          "internalType": "bytes32",
          "name": "",
          "type": "bytes32"
        }
      ],
      "stateMutability": "view",
      "type": "function",
      "constant": true
    },
    {
      "inputs": [],
      "name": "numChallenges",
      "outputs": [
        {
          "internalType": "uint256",
          "name": "",
          "type": "uint256"
        }
      ],
      "stateMutability": "view",
      "type": "function",
      "constant": true
    },
    {
      "inputs": [],
      "name": "oracle",
      "outputs": [
        {
          "internalType": "address",
          "name": "",
          "type": "address"
        }
      ],
      "stateMutability": "view",
      "type": "function",
      "constant": true
    },
    {
      "inputs": [
        {
          "internalType": "string",
          "name": "",
          "type": "string"
        }
      ],
      "name": "videos",
      "outputs": [
        {
          "internalType": "string",
          "name": "ipfsHash",
          "type": "string"
        },
        {
          "internalType": "address",
          "name": "creator",
          "type": "address"
        },
        {
          "internalType": "uint256",
          "name": "challengeId",
          "type": "uint256"
        }
      ],
      "stateMutability": "view",
      "type": "function",
      "constant": true
    },
    {
      "inputs": [],
      "name": "volume",
      "outputs": [
        {
          "internalType": "uint256",
          "name": "",
          "type": "uint256"
        }
      ],
      "stateMutability": "view",
      "type": "function",
      "constant": true
    },
    {
      "inputs": [],
      "name": "winnerPercentage",
      "outputs": [
        {
          "internalType": "uint256",
          "name": "",
          "type": "uint256"
        }
      ],
      "stateMutability": "view",
      "type": "function",
      "constant": true
    },
    {
      "inputs": [
        {
          "internalType": "address payable",
          "name": "_beneficiary",
          "type": "address"
        },
        {
          "internalType": "address[]",
          "name": "_invitedAddresses",
          "type": "address[]"
        },
        {
          "internalType": "uint256",
          "name": "_endTimestamp",
          "type": "uint256"
        },
        {
          "internalType": "uint256",
          "name": "_minEntryFee",
          "type": "uint256"
        },
        {
          "internalType": "string",
          "name": "_ipfsHash",
          "type": "string"
        }
      ],
      "name": "startChallenge",
      "outputs": [
        {
          "internalType": "uint256",
          "name": "",
          "type": "uint256"
        }
      ],
      "stateMutability": "payable",
      "type": "function",
      "payable": true
    },
    {
      "inputs": [
        {
          "internalType": "uint256",
          "name": "_challengeId",
          "type": "uint256"
        },
        {
          "internalType": "address[]",
          "name": "_invitedAddresses",
          "type": "address[]"
        },
        {
          "internalType": "string",
          "name": "_ipfsHash",
          "type": "string"
        }
      ],
      "name": "jumpIn",
      "outputs": [],
      "stateMutability": "payable",
      "type": "function",
      "payable": true
    },
    {
      "inputs": [
        {
          "internalType": "uint256",
          "name": "_challengeId",
          "type": "uint256"
        },
        {
          "internalType": "address payable",
          "name": "_winner",
          "type": "address"
        }
      ],
      "name": "resolveChallenge",
      "outputs": [],
      "stateMutability": "payable",
      "type": "function",
      "payable": true
    },
    {
      "inputs": [],
      "name": "requestVolumeData",
      "outputs": [
        {
          "internalType": "bytes32",
          "name": "requestId",
          "type": "bytes32"
        }
      ],
      "stateMutability": "nonpayable",
      "type": "function"
    },
    {
      "inputs": [
        {
          "internalType": "bytes32",
          "name": "_requestId",
          "type": "bytes32"
        },
        {
          "internalType": "uint256",
          "name": "_volume",
          "type": "uint256"
        }
      ],
      "name": "fulfill",
      "outputs": [],
      "stateMutability": "nonpayable",
      "type": "function"
    }
  ],
  "bytecode": "0x60806040526001600555600060085561012c600955612328600a556102bc600b55600f80546001600160a01b0319167329ce4c76e6aaa0670751290ac167eef4b1c6f3e31790557f393036323433333966616264346336346262626366333761303037613432336560105567016345785d8a000060115534801561008257600080fd5b5060016000556121dd806100976000396000f3fe6080604052600436106100e85760003560e01c806382b98f9d1161008a578063ce1bf8fb11610059578063ce1bf8fb14610487578063d127c38714610550578063ddca3f4314610565578063f071bf4f1461057a576100e8565b806382b98f9d146103d85780638f1d3776146103ed578063c2939d971461045d578063c618a1e414610472576100e8565b80635e06ff19116100c65780635e06ff19146102245780636021abac146102505780636ef4de9e146102655780637dc0d1d0146103a7576100e8565b80630230ee01146100ed5780634357855e146101145780635a1afab814610146575b600080fd5b3480156100f957600080fd5b5061010261058f565b60408051918252519081900360200190f35b34801561012057600080fd5b506101446004803603604081101561013757600080fd5b5080359060200135610595565b005b610102600480360360a081101561015c57600080fd5b6001600160a01b03823516919081019060408101602082013564010000000081111561018757600080fd5b82018360208201111561019957600080fd5b803590602001918460208302840111640100000000831117156101bb57600080fd5b9193909282359260208101359291906060810190604001356401000000008111156101e557600080fd5b8201836020820111156101f757600080fd5b8035906020019184600183028401116401000000008311171561021957600080fd5b509092509050610698565b6101446004803603604081101561023a57600080fd5b50803590602001356001600160a01b0316610a4e565b34801561025c57600080fd5b50610102610baf565b34801561027157600080fd5b506103186004803603602081101561028857600080fd5b8101906020810181356401000000008111156102a357600080fd5b8201836020820111156102b557600080fd5b803590602001918460018302840111640100000000831117156102d757600080fd5b91908080601f016020809104026020016040519081016040528093929190818152602001838380828437600092019190915250929550610d28945050505050565b6040518080602001846001600160a01b03168152602001838152602001828103825285818151815260200191508051906020019080838360005b8381101561036a578181015183820152602001610352565b50505050905090810190601f1680156103975780820380516001836020036101000a031916815260200191505b5094505050505060405180910390f35b3480156103b357600080fd5b506103bc610deb565b604080516001600160a01b039092168252519081900360200190f35b3480156103e457600080fd5b50610102610dfa565b3480156103f957600080fd5b506104176004803603602081101561041057600080fd5b5035610e00565b604080519715158852951515602088015286860194909452606086019290925260808501526001600160a01b0390811660a08501521660c0830152519081900360e00190f35b34801561046957600080fd5b50610102610e48565b34801561047e57600080fd5b50610102610e4e565b6101446004803603606081101561049d57600080fd5b813591908101906040810160208201356401000000008111156104bf57600080fd5b8201836020820111156104d157600080fd5b803590602001918460208302840111640100000000831117156104f357600080fd5b91939092909160208101903564010000000081111561051157600080fd5b82018360208201111561052357600080fd5b8035906020019184600183028401116401000000008311171561054557600080fd5b509092509050610e54565b34801561055c57600080fd5b506101026111b2565b34801561057157600080fd5b506101026111b8565b34801561058657600080fd5b506101026111be565b600a5481565b60008281526006602052604090205482906001600160a01b031633146105ec5760405162461bcd60e51b81526004018080602001828103825260288152602001806120976028913960400191505060405180910390fd5b60008181526006602052604080822080546001600160a01b03191690555182917f7cc135e0cebb02c3480ae5d74d377283180a2601f8f644edf7987b009316c63a91a2600e829055604080516020808252600f908201527f474f5420494e2043414c4c4241434b00000000000000000000000000000000008183015290517ecb39d6c2c520f0597db0021367767c48fef2964cf402d3c9e9d4df12e439649181900360600190a1505050565b6000600260005414156106f2576040805162461bcd60e51b815260206004820152601f60248201527f5265656e7472616e637947756172643a207265656e7472616e742063616c6c00604482015290519081900360640190fd5b60026000554285116107355760405162461bcd60e51b815260040180806020018281038252604d815260200180611e7a604d913960600191505060405180910390fd5b833410156107745760405162461bcd60e51b8152600401808060200182810382526050815260200180611f5d6050913960600191505060405180910390fd5b6008546001016000818152600d60205260409020600401546001600160a01b0316156107d15760405162461bcd60e51b8152600401808060200182810382526033815260200180611ec76033913960400191505060405180910390fd5b6040805160e08101825288158152600160208201523491810191909152606081018690526080810187905260a081016108086111c4565b6001600160a01b0390811682528b81166020928301526000848152600d83526040808220855181549587015115156101000261ff001991151560ff1990971696909617169490941784558401516001840155606084015160028401556080840151600384015560a08401516004840180549184166001600160a01b031992831617905560c0909401516005909301805493909216929093169190911790555b8781101561090b576000828152600d602052604081206001916006909101908b8b858181106108d257fe5b602090810292909201356001600160a01b0316835250810191909152604001600020805460ff19169115159190911790556001016108a7565b50604051806060016040528085858080601f01602080910402602001604051908101604052809392919081815260200183838082843760009201919091525050509082525060200161095b6111c4565b6001600160a01b0316815260200182815250600c858560405180838380828437919091019485525050604051602093819003840190208451805191946109a694508593500190611d74565b506020820151600182810180546001600160a01b0319166001600160a01b03909316929092179091556040909201516002909101556008546109e7916111c8565b6008556001600160a01b0389166109fc6111c4565b6001600160a01b0316827fcc03f047fdb24a0f5bb5fc5eb6efdaef7e6d66206d4237a1eeb7bf6229a1ceb0896040518082815260200191505060405180910390a4600160005598975050505050505050565b6000828152600d6020526040902060048101546001600160a01b0316610aa55760405162461bcd60e51b8152600401808060200182810382526036815260200180611ff36036913960400191505060405180910390fd5b806003015442118015610abe57508054610100900460ff165b610af95760405162461bcd60e51b81526004018080602001828103825260398152602001806120296039913960400191505060405180910390fd5b60018101548015610b2d576000600183015560058201546004830154610b2d916001600160a01b039081169116858461122b565b815461ff001916825560408051602081018390528181526004818301527f5445535400000000000000000000000000000000000000000000000000000000606082015290516001600160a01b0385169186917fc74250073bd5a97615b59736fda453e2971399fe386d74ad9eb839194c6c435a9181900360800190a350505050565b6000610bb9611df2565b601054610be790307f4357855e0000000000000000000000000000000000000000000000000000000061148d565b9050610c436040518060400160405280600781526020017f68747470676574000000000000000000000000000000000000000000000000008152506040518060800160405280604c815260200161215c604c91398391906114b2565b610cc26040518060400160405280600981526020017f6a736f6e706172736500000000000000000000000000000000000000000000008152506040518060400160405280600c81526020017f657468657265756d2e7573640000000000000000000000000000000000000000815250836114b29092919063ffffffff16565b60408051808201909152600881527f6d756c7469706c7900000000000000000000000000000000000000000000000060208201526103e890610d06908390836114d5565b600f54601154610d21916001600160a01b03169084906114f3565b9250505090565b8051602081830181018051600c8252928201938201939093209190925280546040805160026001841615610100026000190190931692909204601f8101859004850283018501909152808252919290918391830182828015610dcb5780601f10610da057610100808354040283529160200191610dcb565b820191906000526020600020905b815481529060010190602001808311610dae57829003601f168201915b50505050600183015460029093015491926001600160a01b031691905083565b600f546001600160a01b031681565b600b5481565b600d6020526000908152604090208054600182015460028301546003840154600485015460059095015460ff8086169661010090960416946001600160a01b03908116911687565b60105481565b600e5481565b60026000541415610eac576040805162461bcd60e51b815260206004820152601f60248201527f5265656e7472616e637947756172643a207265656e7472616e742063616c6c00604482015290519081900360640190fd5b60026000908155858152600d6020526040902060038101544210610f015760405162461bcd60e51b81526004018080602001828103825260228152602001806120bf6022913960400191505060405180910390fd5b805460ff16610f7057806006016000610f186111c4565b6001600160a01b0316815260208101919091526040016000205460ff16610f705760405162461bcd60e51b81526004018080602001828103825260358152602001806120626035913960400191505060405180910390fd5b600281015415610fbd578060020154341015610fbd5760405162461bcd60e51b81526004018080602001828103825260358152602001806121276035913960400191505060405180910390fd5b6001810154610fcc90346111c8565b81600101819055506001816006016000610fe46111c4565b6001600160a01b0316815260208101919091526040016000908120805460ff1916921515929092179091555b8481101561106557600182600601600088888581811061102c57fe5b602090810292909201356001600160a01b0316835250810191909152604001600020805460ff1916911515919091179055600101611010565b50604051806060016040528084848080601f0160208091040260200160405190810160405280939291908181526020018383808284376000920191909152505050908252506020016110b56111c4565b6001600160a01b0316815260200187815250600c8484604051808383808284379190910194855250506040516020938190038401902084518051919461110094508593500190611d74565b5060208201516001820180546001600160a01b0319166001600160a01b0390921691909117905560409091015160029091015561113b6111c4565b6001600160a01b0316867fcbb62a4c74a5a652c1d1dd261b3ed466e79794952d8632b33427a556a4e8ca63858560405180806020018281038252848482818152602001925080828437600083820152604051601f909101601f19169092018290039550909350505050a35050600160005550505050565b60085481565b60115481565b60095481565b3390565b600082820183811015611222576040805162461bcd60e51b815260206004820152601b60248201527f536166654d6174683a206164646974696f6e206f766572666c6f770000000000604482015290519081900360640190fd5b90505b92915050565b600a5460009061124790611241846127106116c1565b90611728565b6040519091506000906001600160a01b0387169083908381818185875af1925050503d8060008114611295576040519150601f19603f3d011682016040523d82523d6000602084013e61129a565b606091505b50509050806112da5760405162461bcd60e51b8152600401808060200182810382526046815260200180611fad6046913960600191505060405180910390fd5b6009546000906112f090611241866127106116c1565b6040519091506000906001600160a01b0388169083908381818185875af1925050503d806000811461133e576040519150601f19603f3d011682016040523d82523d6000602084013e611343565b606091505b50509050806113835760405162461bcd60e51b8152600401808060200182810382526042815260200180611f1b6042913960600191505060405180910390fd5b6000611399836113938888611781565b90611781565b6040519091506000906001600160a01b0389169083908381818185875af1925050503d80600081146113e7576040519150601f19603f3d011682016040523d82523d6000602084013e6113ec565b606091505b505090508061142c5760405162461bcd60e51b81526004018080602001828103825260468152602001806120e16046913960600191505060405180910390fd5b896001600160a01b0316886001600160a01b03168a6001600160a01b03167f2f790d1ddfc2a1fd18dba953bed05754acf42fc093d43bccf7472655ffeebd098a6040518082815260200191505060405180910390a450505050505050505050565b611495611df2565b61149d611df2565b6114a9818686866117de565b95945050505050565b60808301516114c19083611833565b60808301516114d09082611833565b505050565b60808301516114e49083611833565b60808301516114d0908261184a565b6005546040805130606090811b60208084019190915260348084018690528451808503909101815260549093018452825192810192909220908601939093526000838152600690915281812080546001600160a01b0319166001600160a01b038816179055905182917fb5e6e01e79f91267dc17b4e6314d5d4d03593d2ceee0fbb452b750bd70ea5af991a26003546001600160a01b0316634000aea0858461159b876118a9565b6040518463ffffffff1660e01b815260040180846001600160a01b0316815260200183815260200180602001828103825283818151815260200191508051906020019080838360005b838110156115fc5781810151838201526020016115e4565b50505050905090810190601f1680156116295780820380516001836020036101000a031916815260200191505b50945050505050602060405180830381600087803b15801561164a57600080fd5b505af115801561165e573d6000803e3d6000fd5b505050506040513d602081101561167457600080fd5b50516116b15760405162461bcd60e51b8152600401808060200182810382526023815260200180611e576023913960400191505060405180910390fd5b6005805460010190559392505050565b6000808211611717576040805162461bcd60e51b815260206004820152601a60248201527f536166654d6174683a206469766973696f6e206279207a65726f000000000000604482015290519081900360640190fd5b81838161172057fe5b049392505050565b60008261173757506000611225565b8282028284828161174457fe5b04146112225760405162461bcd60e51b8152600401808060200182810382526021815260200180611efa6021913960400191505060405180910390fd5b6000828211156117d8576040805162461bcd60e51b815260206004820152601e60248201527f536166654d6174683a207375627472616374696f6e206f766572666c6f770000604482015290519081900360640190fd5b50900390565b6117e6611df2565b6117f68560800151610100611a0f565b50509183526001600160a01b031660208301527fffffffff0000000000000000000000000000000000000000000000000000000016604082015290565b6118408260038351611a49565b6114d08282611b23565b67ffffffffffffffff1981121561186a576118658282611b3d565b6118a5565b67ffffffffffffffff811315611884576118658282611b76565b600081126118985761186582600083611a49565b6118a58260018319611a49565b5050565b6060634042994660e01b6000808460000151856020015186604001518760600151600189608001516000015160405160240180896001600160a01b03168152602001888152602001878152602001866001600160a01b03168152602001857bffffffffffffffffffffffffffffffffffffffffffffffffffffffff1916815260200184815260200183815260200180602001828103825283818151815260200191508051906020019080838360005b83811015611970578181015183820152602001611958565b50505050905090810190601f16801561199d5780820380516001836020036101000a031916815260200191505b5060408051601f198184030181529190526020810180517bffffffffffffffffffffffffffffffffffffffffffffffffffffffff167fffffffff00000000000000000000000000000000000000000000000000000000909d169c909c17909b5250989950505050505050505050919050565b611a17611e27565b6020820615611a2c5760208206602003820191505b506020828101829052604080518085526000815290920101905290565b60178111611a6a57611a648360e0600585901b168317611bab565b506114d0565b60ff8111611a9457611a87836018611fe0600586901b1617611bab565b50611a6483826001611bc3565b61ffff8111611abf57611ab2836019611fe0600586901b1617611bab565b50611a6483826002611bc3565b63ffffffff8111611aec57611adf83601a611fe0600586901b1617611bab565b50611a6483826004611bc3565b67ffffffffffffffff81116114d057611b1083601b611fe0600586901b1617611bab565b50611b1d83826008611bc3565b50505050565b611b2b611e27565b61122283846000015151848551611be4565b611b488260c3611bab565b506118a582826000190360405160200180828152602001915050604051602081830303815290604052611c90565b611b818260c2611bab565b506118a5828260405160200180828152602001915050604051602081830303815290604052611c90565b611bb3611e27565b6112228384600001515184611c9d565b611bcb611e27565b611bdc848560000151518585611ce8565b949350505050565b611bec611e27565b8251821115611bfa57600080fd5b84602001518285011115611c2457611c2485611c1c8760200151878601611d46565b600202611d5d565b600080865180518760208301019350808887011115611c435787860182525b505050602084015b60208410611c6a5780518252601f199093019260209182019101611c4b565b51815160001960208690036101000a019081169019919091161790525083949350505050565b6118408260028351611a49565b611ca5611e27565b83602001518310611cc157611cc1848560200151600202611d5d565b835180516020858301018481535080851415611cde576001810182525b5093949350505050565b611cf0611e27565b84602001518483011115611d0d57611d0d85858401600202611d5d565b60006001836101000a039050855183868201018583198251161781525080518487011115611d3b5783860181525b509495945050505050565b600081831115611d57575081611225565b50919050565b8151611d698383611a0f565b50611b1d8382611b23565b828054600181600116156101000203166002900490600052602060002090601f016020900481019282601f10611db557805160ff1916838001178555611de2565b82800160010185558215611de2579182015b82811115611de2578251825591602001919060010190611dc7565b50611dee929150611e41565b5090565b6040805160a081018252600080825260208201819052918101829052606081019190915260808101611e22611e27565b905290565b604051806040016040528060608152602001600081525090565b5b80821115611dee5760008155600101611e4256fe756e61626c6520746f207472616e73666572416e6443616c6c20746f206f7261636c655374617252656c61792e73746172744368616c6c656e67653a20656e6454696d657374616d70206d75737420626520626967676572207468616e2063757272656e742074696d657374616d702e5374617252656c61792e73746172744368616c6c656e67653a204368616c6c656e676520616c7265616479206578697374732e536166654d6174683a206d756c7469706c69636174696f6e206f766572666c6f775374617252656c61792e5f73706c697446756e6473496e4368616c6c656e6765203a204661696c656420746f2073656e642063726561746f7227732073686172652e5374617252656c61792e73746172744368616c6c656e67653a20596f75206d757374206174206c65617374206d6174636820746865206d696e696d756d20656e7472792066656520796f7520736574215374617252656c61792e5f73706c697446756e6473496e4368616c6c656e6765203a204661696c656420746f2073656e642062656e656669636961727927732073686172652e5374617252656c61792e7265736f6c76654368616c6c656e6765203a206368616c6c656e676520646f6573206e6f74206578697374735374617252656c61792e7265736f6c76654368616c6c656e6765203a206368616c6c656e6765206973207374696c6c20676f696e67206f6e2e5374617252656c61792e6a756d70496e3a20596f75206e6565642061206368616c6c656e676572277320696e7669746174696f6e2e536f75726365206d75737420626520746865206f7261636c65206f662074686520726571756573745374617252656c61792e6a756d70496e3a204368616c6c656e676520656e6465642e5374617252656c61792e5f73706c697446756e6473496e4368616c6c656e6765203a204661696c656420746f2073656e6420686967686573744c696b6527732073686172652e5374617252656c61792e6a756d70496e3a20506c65617365206d6174636820746865206d696e696d756d20656e747279206665652e68747470733a2f2f6170692e636f696e6765636b6f2e636f6d2f6170692f76332f73696d706c652f70726963653f6964733d657468657265756d2676735f63757272656e636965733d757364a2646970667358221220d9a1fe50bd05f0b412ed422251839937a803aa0a31e03a68545fa580cbb2f42664736f6c634300060c0033",
  "immutableReferences": {},
  "source": "// SPDX-License-Identifier: MIT\n\npragma solidity 0.6.12;\n\nimport \"@openzeppelin/contracts/GSN/Context.sol\"; \nimport \"@openzeppelin/contracts/utils/ReentrancyGuard.sol\";\nimport \"@openzeppelin/contracts/math/SafeMath.sol\";\nimport \"@chainlink/contracts/src/v0.6/ChainlinkClient.sol\";\n\n/**\n * @title The Challenge contract\n * @author The Cool Devs (Lijia, Emma, Ben, Mehrad)\n * @dev a contract facilitating the video relay challenge\n */\ncontract StarRelay is\n    ReentrancyGuard,\n    Context,\n    ChainlinkClient\n{\n    using SafeMath for uint256;\n\n    event NewChallengeStarted(\n      uint256 indexed challengeId, \n      address indexed creator, \n      address indexed beneficiary, \n      uint256 endTimestamp\n    );\n\n    event NewChallengerJumpedIn(\n      uint256 indexed challengeId,\n      address indexed challenger,\n      string ipfsHash\n    );\n\n    event ChallengeResolved(\n      uint256 indexed challengeId,\n      address indexed winner,\n      string ipfsHash,\n      uint256 totalFund\n    );\n\n    event FundsSplitted(\n      address indexed beneficiary,\n      address indexed creator,\n      address indexed winner,\n      uint256 totalFund\n    );\n\n    struct Challenge {\n      bool isPublic;\n      bool isActive;\n      uint256 totalFund;\n      uint256 minEntryFee;\n      uint256 endTimestamp;\n      address payable creator;\n      address payable beneficiary;\n      mapping(address => bool)  invitedAddresses;\n    }\n\n    struct Video {\n      string ipfsHash;\n      address creator;\n      uint256 challengeId;\n    }\n    address private platform;\n    uint256 public numChallenges = 0;\n    uint256 public creatorPercentage = 300;\n    uint256 public beneficiaryPercentage = 9000;\n    uint256 public winnerPercentage = 700;// maybe we can drop this\n    uint256 constant ONE_HUNDRED_SCALED = 10000;\n\n    mapping(string => Video) public videos;\n    mapping(uint256 => Challenge) public challenges;\n\n    /********* \n      CHAINLINK SETUP     \n    *********/\n    //TODO : CHANGE TO PRIVE AND INIT IN CONTRUCTOR\n    uint256 public volume; //DELETE\n    address public oracle = 0x29CE4C76e6aaA0670751290AC167eeF4B1c6F3E3;\n    bytes32 public jobId = \"90624339fabd4c64bbbcf37a007a423e\";\n    uint256 public fee = 0.1 * 10 ** 18;  // 0.1 LINK\n    event Test(string message);\n\n    // constructor(\n      \n    // ) public {\n    //   setPublicChainlinkToken();\n    // }\n\n    function startChallenge(address payable _beneficiary, address[] calldata _invitedAddresses,\n      uint256 _endTimestamp, uint256 _minEntryFee, string calldata _ipfsHash) \n      nonReentrant public payable returns (uint256) {\n\n        \n        require(now < _endTimestamp, \"StarRelay.startChallenge: endTimestamp must be bigger than current timestamp.\");\n        require(msg.value >= _minEntryFee, \"StarRelay.startChallenge: You must at least match the minimum entry fee you set!\");\n        uint256 challengeId = numChallenges + 1;\n\n        require(challenges[challengeId].creator == address(0), \"StarRelay.startChallenge: Challenge already exists.\");\n\n        challenges[challengeId] = Challenge({\n          creator: _msgSender(),\n          beneficiary: _beneficiary,\n          isPublic: _invitedAddresses.length == 0,\n          endTimestamp: _endTimestamp,\n          minEntryFee: _minEntryFee,\n          totalFund: msg.value,\n          isActive : true\n        });\n\n        // adding invitees to the mapping\n        for(uint256 i =0 ; i< _invitedAddresses.length; i++) {\n          challenges[challengeId].invitedAddresses[_invitedAddresses[i]] = true;\n        }\n\n        videos[_ipfsHash] = Video({\n          ipfsHash: _ipfsHash,\n          creator: _msgSender(),\n          challengeId: challengeId\n        });\n        numChallenges = numChallenges.add(1);\n\n        emit NewChallengeStarted(challengeId, _msgSender(), _beneficiary, _endTimestamp);\n\n        return challengeId;\n\n    }\n\n    function jumpIn(uint256 _challengeId,\n      address[] calldata _invitedAddresses, string calldata _ipfsHash)\n      nonReentrant public payable {\n        \n        Challenge storage challenge = challenges[_challengeId];\n\n        // check if challenge hasn't ended\n        require(now < challenge.endTimestamp, \"StarRelay.jumpIn: Challenge ended.\");\n\n        if (!challenge.isPublic) {\n          // if msg.sender is invited\n          require(challenge.invitedAddresses[_msgSender()], \"StarRelay.jumpIn: You need a challenger's invitation.\");\n        }\n\n        // if there's an entry fee\n        if(challenge.minEntryFee > 0) {\n          require(msg.value >= challenge.minEntryFee, \"StarRelay.jumpIn: Please match the minimum entry fee.\");\n        }\n\n        challenge.totalFund = challenge.totalFund.add(msg.value);\n        challenge.invitedAddresses[_msgSender()] = true;\n\n        // adding invitees to the mapping\n        for(uint256 i =0 ; i< _invitedAddresses.length; i++) {\n          challenge.invitedAddresses[_invitedAddresses[i]] = true;\n        }\n        videos[_ipfsHash] = Video({\n          ipfsHash: _ipfsHash,\n          creator: _msgSender(),\n          challengeId: _challengeId\n        });\n\n        emit NewChallengerJumpedIn(_challengeId, _msgSender(), _ipfsHash);\n    }\n\n    function resolveChallenge(uint256 _challengeId, address payable _winner)payable  public  {\n      Challenge storage challenge = challenges[_challengeId];\n\n      // check if challenge exists\n      require(challenge.creator != address(0), \"StarRelay.resolveChallenge : challenge does not exists\");\n\n      // check if endTimestamp has reached\n      require(now > challenge.endTimestamp && challenge.isActive, \"StarRelay.resolveChallenge : challenge is still going on.\");\n      //TODO : send a chinlink get req to get highest like \n      uint256 totalFund = challenge.totalFund;\n\n      //commented code explaination : originally used to like this but the only way to prevent \n      // resolveing a challenge more than once is to check totalBalance. \n      if(totalFund > 0) {\n        challenge.totalFund = 0;\n        _splitFundsInChallenge(challenge.beneficiary, challenge.creator, _winner, totalFund);\n      }\n      challenge.isActive = false;\n\n      // TODO: REPLACE IPFS_HASH WITH HARDCODED TEXT BELOW\n      emit ChallengeResolved(_challengeId, _winner, \"TEST\", totalFund);\n    }\n\n    function _splitFundsInChallenge(address payable _beneficiary,\n      address payable _creator, address payable _winner, uint256 _totalFund ) private  {\n        // Calculate Beneficiary's share\n        uint256 beneficiaryShare = _totalFund.div(ONE_HUNDRED_SCALED).mul(beneficiaryPercentage);\n        (bool beneficiaryReceipt, ) = _beneficiary.call{value : beneficiaryShare}(\"\");\n        require(beneficiaryReceipt, \"StarRelay._splitFundsInChallenge : Failed to send beneficiary's share.\");\n\n        // Calculate creator's share\n        uint256 creatorShare = _totalFund.div(ONE_HUNDRED_SCALED).mul(creatorPercentage);\n        (bool creatorReceipt, ) = _creator.call{value : creatorShare}(\"\");\n        require(creatorReceipt, \"StarRelay._splitFundsInChallenge : Failed to send creator's share.\");\n\n        // Calculate winner's share\n        uint256 winnerShare = _totalFund.sub(beneficiaryShare).sub(creatorShare);\n        (bool winnerReceipt, ) = _winner.call{value : winnerShare}(\"\");\n        require(winnerReceipt, \"StarRelay._splitFundsInChallenge : Failed to send highestLike's share.\");\n\n        emit FundsSplitted(_creator, _winner, _beneficiary, _totalFund);\n      }\n\n      function requestVolumeData() public returns (bytes32 requestId) \n    {\n        Chainlink.Request memory request = buildChainlinkRequest(jobId, address(this), this.fulfill.selector);\n        \n        // Set the URL to perform the GET request on\n        request.add(\"httpget\", \"https://api.coingecko.com/api/v3/simple/price?ids=ethereum&vs_currencies=usd\");\n        \n        // Set the path to find the desired data in the API response, where the response format is:\n        // {\"RAW\":\n        //   {\"ETH\":\n        //    {\"USD\":\n        //     {\n        //      \"VOLUME24HOUR\": xxx.xxx,\n        //     }\n        //    }\n        //   }\n        //  }\n        request.add(\"jsonparse\", \"ethereum.usd\");\n        \n        // Multiply the result by 1000000000000000000 to remove decimals\n        int timesAmount = 10**3;\n        request.addInt(\"multiply\", timesAmount);\n        \n        // Sends the request\n        return sendChainlinkRequestTo(oracle, request, fee);\n    }\n\n     /**\n     * Receive the response in the form of uint256\n     */ \n    function fulfill(bytes32 _requestId, uint256 _volume) public recordChainlinkFulfillment(_requestId)\n    {\n        volume = _volume;\n        emit Test(\"GOT IN CALLBACK\");\n    }\n\n}",
  "sourcePath": "/home/emma/Documents/ethdenver2021/denver-contracts/contracts/StarRelay.sol",
  "compiler": {
    "name": "solc",
    "version": "0.6.12+commit.27d51765.Emscripten.clang"
  },
  "schemaVersion": "3.2.3",
  "updatedAt": "2021-02-10T00:21:12.964Z",
  "networkType": "ethereum",
  "devdoc": {
    "author": "The Cool Devs (Lijia, Emma, Ben, Mehrad)",
    "details": "a contract facilitating the video relay challenge",
    "kind": "dev",
    "methods": {},
    "title": "The Challenge contract",
    "version": 1
  },
  "userdoc": {
    "kind": "user",
    "methods": {
      "fulfill(bytes32,uint256)": {
        "notice": "Receive the response in the form of uint256"
      }
    },
    "version": 1
  }
}