{
  "contractName": "StarRelay",
  "abi": [
    {
      "anonymous": false,
      "inputs": [
        {
          "indexed": true,
          "internalType": "bytes32",
          "name": "id",
          "type": "bytes32"
        }
      ],
      "name": "ChainlinkCancelled",
      "type": "event"
    },
    {
      "anonymous": false,
      "inputs": [
        {
          "indexed": true,
          "internalType": "bytes32",
          "name": "id",
          "type": "bytes32"
        }
      ],
      "name": "ChainlinkFulfilled",
      "type": "event"
    },
    {
      "anonymous": false,
      "inputs": [
        {
          "indexed": true,
          "internalType": "bytes32",
          "name": "id",
          "type": "bytes32"
        }
      ],
      "name": "ChainlinkRequested",
      "type": "event"
    },
    {
      "anonymous": false,
      "inputs": [
        {
          "indexed": true,
          "internalType": "uint256",
          "name": "challengeId",
          "type": "uint256"
        },
        {
          "indexed": true,
          "internalType": "address",
          "name": "winner",
          "type": "address"
        },
        {
          "indexed": false,
          "internalType": "string",
          "name": "ipfsHash",
          "type": "string"
        },
        {
          "indexed": false,
          "internalType": "uint256",
          "name": "totalFund",
          "type": "uint256"
        }
      ],
      "name": "ChallengeResolved",
      "type": "event"
    },
    {
      "anonymous": false,
      "inputs": [
        {
          "indexed": true,
          "internalType": "address",
          "name": "beneficiary",
          "type": "address"
        },
        {
          "indexed": true,
          "internalType": "address",
          "name": "creator",
          "type": "address"
        },
        {
          "indexed": true,
          "internalType": "address",
          "name": "winner",
          "type": "address"
        },
        {
          "indexed": false,
          "internalType": "uint256",
          "name": "totalFund",
          "type": "uint256"
        }
      ],
      "name": "FundsSplitted",
      "type": "event"
    },
    {
      "anonymous": false,
      "inputs": [
        {
          "indexed": true,
          "internalType": "uint256",
          "name": "challengeId",
          "type": "uint256"
        },
        {
          "indexed": true,
          "internalType": "address",
          "name": "challenger",
          "type": "address"
        },
        {
          "indexed": true,
          "internalType": "address",
          "name": "invitee",
          "type": "address"
        }
      ],
      "name": "Invitation",
      "type": "event"
    },
    {
      "anonymous": false,
      "inputs": [
        {
          "indexed": true,
          "internalType": "uint256",
          "name": "challengeId",
          "type": "uint256"
        },
        {
          "indexed": true,
          "internalType": "address",
          "name": "creator",
          "type": "address"
        },
        {
          "indexed": true,
          "internalType": "address",
          "name": "beneficiary",
          "type": "address"
        },
        {
          "indexed": false,
          "internalType": "uint256",
          "name": "endTimestamp",
          "type": "uint256"
        },
        {
          "indexed": false,
          "internalType": "string",
          "name": "ipfsHash",
          "type": "string"
        }
      ],
      "name": "NewChallengeStarted",
      "type": "event"
    },
    {
      "anonymous": false,
      "inputs": [
        {
          "indexed": true,
          "internalType": "uint256",
          "name": "challengeId",
          "type": "uint256"
        },
        {
          "indexed": true,
          "internalType": "address",
          "name": "challenger",
          "type": "address"
        },
        {
          "indexed": false,
          "internalType": "string",
          "name": "ipfsHash",
          "type": "string"
        },
        {
          "indexed": false,
          "internalType": "uint256",
          "name": "totalFund",
          "type": "uint256"
        }
      ],
      "name": "NewChallengerJumpedIn",
      "type": "event"
    },
    {
      "inputs": [],
      "name": "beneficiaryPercentage",
      "outputs": [
        {
          "internalType": "uint256",
          "name": "",
          "type": "uint256"
        }
      ],
      "stateMutability": "view",
      "type": "function",
      "constant": true
    },
    {
      "inputs": [
        {
          "internalType": "uint256",
          "name": "",
          "type": "uint256"
        }
      ],
      "name": "challenges",
      "outputs": [
        {
          "internalType": "bool",
          "name": "isPublic",
          "type": "bool"
        },
        {
          "internalType": "bool",
          "name": "isActive",
          "type": "bool"
        },
        {
          "internalType": "uint256",
          "name": "totalFund",
          "type": "uint256"
        },
        {
          "internalType": "uint256",
          "name": "minEntryFee",
          "type": "uint256"
        },
        {
          "internalType": "uint256",
          "name": "endTimestamp",
          "type": "uint256"
        },
        {
          "internalType": "address payable",
          "name": "creator",
          "type": "address"
        },
        {
          "internalType": "address payable",
          "name": "beneficiary",
          "type": "address"
        },
        {
          "internalType": "address payable",
          "name": "lastChallenger",
          "type": "address"
        },
        {
          "internalType": "string",
          "name": "lastVideoHash",
          "type": "string"
        }
      ],
      "stateMutability": "view",
      "type": "function",
      "constant": true
    },
    {
      "inputs": [],
      "name": "creatorPercentage",
      "outputs": [
        {
          "internalType": "uint256",
          "name": "",
          "type": "uint256"
        }
      ],
      "stateMutability": "view",
      "type": "function",
      "constant": true
    },
    {
      "inputs": [],
      "name": "numChallenges",
      "outputs": [
        {
          "internalType": "uint256",
          "name": "",
          "type": "uint256"
        }
      ],
      "stateMutability": "view",
      "type": "function",
      "constant": true
    },
    {
      "inputs": [
        {
          "internalType": "string",
          "name": "",
          "type": "string"
        }
      ],
      "name": "videos",
      "outputs": [
        {
          "internalType": "string",
          "name": "ipfsHash",
          "type": "string"
        },
        {
          "internalType": "address",
          "name": "creator",
          "type": "address"
        },
        {
          "internalType": "uint256",
          "name": "challengeId",
          "type": "uint256"
        }
      ],
      "stateMutability": "view",
      "type": "function",
      "constant": true
    },
    {
      "inputs": [],
      "name": "winnerPercentage",
      "outputs": [
        {
          "internalType": "uint256",
          "name": "",
          "type": "uint256"
        }
      ],
      "stateMutability": "view",
      "type": "function",
      "constant": true
    },
    {
      "inputs": [
        {
          "internalType": "address payable",
          "name": "_beneficiary",
          "type": "address"
        },
        {
          "internalType": "address[]",
          "name": "_invitedAddresses",
          "type": "address[]"
        },
        {
          "internalType": "uint256",
          "name": "_endTimestamp",
          "type": "uint256"
        },
        {
          "internalType": "uint256",
          "name": "_minEntryFee",
          "type": "uint256"
        },
        {
          "internalType": "string",
          "name": "_ipfsHash",
          "type": "string"
        }
      ],
      "name": "startChallenge",
      "outputs": [
        {
          "internalType": "uint256",
          "name": "",
          "type": "uint256"
        }
      ],
      "stateMutability": "payable",
      "type": "function",
      "payable": true
    },
    {
      "inputs": [
        {
          "internalType": "uint256",
          "name": "_challengeId",
          "type": "uint256"
        },
        {
          "internalType": "address[]",
          "name": "_invitedAddresses",
          "type": "address[]"
        },
        {
          "internalType": "string",
          "name": "_ipfsHash",
          "type": "string"
        }
      ],
      "name": "jumpIn",
      "outputs": [],
      "stateMutability": "payable",
      "type": "function",
      "payable": true
    },
    {
      "inputs": [
        {
          "internalType": "uint256",
          "name": "_challengeId",
          "type": "uint256"
        }
      ],
      "name": "resolveChallenge",
      "outputs": [],
      "stateMutability": "payable",
      "type": "function",
      "payable": true
    }
  ],
  "bytecode": "0x60806040526001600555600060085561012c600955612328600a556102bc600b5534801561002c57600080fd5b50600160005561199d806100416000396000f3fe6080604052600436106100965760003560e01c806382b98f9d11610069578063ce1bf8fb1161004e578063ce1bf8fb1461040f578063d127c387146104d8578063f071bf4f146104ed57610096565b806382b98f9d146103015780638f1d37761461031657610096565b80630230ee011461009b5780635a1afab8146100c25780636ef4de9e146101a0578063761c7cfe146102e2575b600080fd5b3480156100a757600080fd5b506100b0610502565b60408051918252519081900360200190f35b6100b0600480360360a08110156100d857600080fd5b6001600160a01b03823516919081019060408101602082013564010000000081111561010357600080fd5b82018360208201111561011557600080fd5b8035906020019184602083028401116401000000008311171561013757600080fd5b91939092823592602081013592919060608101906040013564010000000081111561016157600080fd5b82018360208201111561017357600080fd5b8035906020019184600183028401116401000000008311171561019557600080fd5b509092509050610508565b3480156101ac57600080fd5b50610253600480360360208110156101c357600080fd5b8101906020810181356401000000008111156101de57600080fd5b8201836020820111156101f057600080fd5b8035906020019184600183028401116401000000008311171561021257600080fd5b91908080601f016020809104026020016040519081016040528093929190818152602001838380828437600092019190915250929550610a16945050505050565b6040518080602001846001600160a01b03168152602001838152602001828103825285818151815260200191508051906020019080838360005b838110156102a557818101518382015260200161028d565b50505050905090810190601f1680156102d25780820380516001836020036101000a031916815260200191505b5094505050505060405180910390f35b6102ff600480360360208110156102f857600080fd5b5035610ad9565b005b34801561030d57600080fd5b506100b0610c96565b34801561032257600080fd5b506103406004803603602081101561033957600080fd5b5035610c9c565b604051808a151581526020018915158152602001888152602001878152602001868152602001856001600160a01b03168152602001846001600160a01b03168152602001836001600160a01b0316815260200180602001828103825283818151815260200191508051906020019080838360005b838110156103cc5781810151838201526020016103b4565b50505050905090810190601f1680156103f95780820380516001836020036101000a031916815260200191505b509a505050505050505050505060405180910390f35b6102ff6004803603606081101561042557600080fd5b8135919081019060408101602082013564010000000081111561044757600080fd5b82018360208201111561045957600080fd5b8035906020019184602083028401116401000000008311171561047b57600080fd5b91939092909160208101903564010000000081111561049957600080fd5b8201836020820111156104ab57600080fd5b803590602001918460018302840111640100000000831117156104cd57600080fd5b509092509050610d85565b3480156104e457600080fd5b506100b06111ba565b3480156104f957600080fd5b506100b06111c0565b600a5481565b600060026000541415610562576040805162461bcd60e51b815260206004820152601f60248201527f5265656e7472616e637947756172643a207265656e7472616e742063616c6c00604482015290519081900360640190fd5b60026000554285116105a55760405162461bcd60e51b815260040180806020018281038252604d8152602001806116ae604d913960600191505060405180910390fd5b833410156105e45760405162461bcd60e51b81526004018080602001828103825260508152602001806117916050913960600191505060405180910390fd5b6008546001016000818152600d60205260409020600401546001600160a01b0316156106415760405162461bcd60e51b81526004018080602001828103825260338152602001806116fb6033913960400191505060405180910390fd5b604080516101208101825288158152600160208201523491810191909152606081018690526080810187905260a081016106796111c6565b6001600160a01b031681526020018a6001600160a01b0316815260200161069e6111c6565b6001600160a01b0316815260200185858080601f0160208091040260200160405190810160405280939291908181526020018383808284376000920182905250939094525050838152600d6020908152604091829020845181548684015160ff199091169115159190911761ff0019166101009115158202178255928501516001820155606085015160028201556080850151600382015560a085015160048201805473ffffffffffffffffffffffffffffffffffffffff199081166001600160a01b039384161790915560c0870151600584018054831691841691909117905560e087015160068401805490921692169190911790559184015180519293506107b192600785019291909101906115ac565b5090505060005b87811015610895576000828152600d602052604081206001916008909101908b8b858181106107e357fe5b905060200201356001600160a01b03166001600160a01b03166001600160a01b0316815260200190815260200160002060006101000a81548160ff02191690831515021790555088888281811061083657fe5b905060200201356001600160a01b03166001600160a01b03166108576111c6565b6001600160a01b0316837fb5dc93adb6982b88166fe74c2198009b4b71461b4e23ec5842ede2092e2ad90f60405160405180910390a46001016107b8565b50604051806060016040528085858080601f0160208091040260200160405190810160405280939291908181526020018383808284376000920191909152505050908252506020016108e56111c6565b6001600160a01b0316815260200182815250600c85856040518083838082843791909101948552505060405160209381900384019020845180519194610930945085935001906115ac565b5060208201516001828101805473ffffffffffffffffffffffffffffffffffffffff19166001600160a01b039093169290921790915560409092015160029091015560085461097e916111ca565b6008556001600160a01b0389166109936111c6565b6001600160a01b0316827f0c17952687ac851650c9d0ccc0fae6b9eac0dc13a05511dfc79c934189f62dd189888860405180848152602001806020018281038252848482818152602001925080828437600083820152604051601f909101601f1916909201829003965090945050505050a4600160005598975050505050505050565b8051602081830181018051600c8252928201938201939093209190925280546040805160026001841615610100026000190190931692909204601f8101859004850283018501909152808252919290918391830182828015610ab95780601f10610a8e57610100808354040283529160200191610ab9565b820191906000526020600020905b815481529060010190602001808311610a9c57829003601f168201915b50505050600183015460029093015491926001600160a01b031691905083565b6000818152600d6020526040902060048101546001600160a01b0316610b305760405162461bcd60e51b81526004018080602001828103825260368152602001806118276036913960400191505060405180910390fd5b806003015442118015610b4957508054610100900460ff165b610b845760405162461bcd60e51b815260040180806020018281038252603981526020018061185d6039913960400191505060405180910390fd5b60018101548015610bbf5760006001830155600582015460048301546006840154610bbf926001600160a01b0390811692811691168461122d565b815461ff001916825560068201546040805160208101849052818152600785018054600260001960018316156101000201909116049282018390526001600160a01b039093169286927fc74250073bd5a97615b59736fda453e2971399fe386d74ad9eb839194c6c435a9286918190606082019085908015610c825780601f10610c5757610100808354040283529160200191610c82565b820191906000526020600020905b815481529060010190602001808311610c6557829003601f168201915b5050935050505060405180910390a3505050565b600b5481565b600d602090815260009182526040918290208054600180830154600280850154600386015460048701546005880154600689015460078a0180548d516101009a8216158b026000190190911697909704601f81018d90048d0288018d01909d528c875260ff808b169d99909a049099169a9699949893976001600160a01b03938416979284169693909116949391830182828015610d7b5780601f10610d5057610100808354040283529160200191610d7b565b820191906000526020600020905b815481529060010190602001808311610d5e57829003601f168201915b5050505050905089565b60026000541415610ddd576040805162461bcd60e51b815260206004820152601f60248201527f5265656e7472616e637947756172643a207265656e7472616e742063616c6c00604482015290519081900360640190fd5b60026000908155858152600d6020526040902060038101544210610e325760405162461bcd60e51b81526004018080602001828103825260228152602001806118cb6022913960400191505060405180910390fd5b805460ff16610ea157806008016000610e496111c6565b6001600160a01b0316815260208101919091526040016000205460ff16610ea15760405162461bcd60e51b81526004018080602001828103825260358152602001806118966035913960400191505060405180910390fd5b600281015415610eee578060020154341015610eee5760405162461bcd60e51b81526004018080602001828103825260358152602001806119336035913960400191505060405180910390fd5b6001810154610efd90346111ca565b81600101819055506001816008016000610f156111c6565b6001600160a01b031681526020810191909152604001600020805460ff1916911515919091179055610f456111c6565b60068201805473ffffffffffffffffffffffffffffffffffffffff19166001600160a01b0392909216919091179055610f8260078201848461162a565b5060005b84811015611054576001826008016000888885818110610fa257fe5b905060200201356001600160a01b03166001600160a01b03166001600160a01b0316815260200190815260200160002060006101000a81548160ff021916908315150217905550858582818110610ff557fe5b905060200201356001600160a01b03166001600160a01b03166110166111c6565b6001600160a01b0316887fb5dc93adb6982b88166fe74c2198009b4b71461b4e23ec5842ede2092e2ad90f60405160405180910390a4600101610f86565b50604051806060016040528084848080601f0160208091040260200160405190810160405280939291908181526020018383808284376000920191909152505050908252506020016110a46111c6565b6001600160a01b0316815260200187815250600c848460405180838380828437919091019485525050604051602093819003840190208451805191946110ef945085935001906115ac565b50602082015160018201805473ffffffffffffffffffffffffffffffffffffffff19166001600160a01b039092169190911790556040909101516002909101556111376111c6565b6001600160a01b0316867ffcb73cdb1f3933e63adbac299e1d89ba8d3c8042a8ddce162c3fd292c9ce3bfb8585856001015460405180806020018381526020018281038252858582818152602001925080828437600083820152604051601f909101601f1916909201829003965090945050505050a35050600160005550505050565b60085481565b60095481565b3390565b600082820183811015611224576040805162461bcd60e51b815260206004820152601b60248201527f536166654d6174683a206164646974696f6e206f766572666c6f770000000000604482015290519081900360640190fd5b90505b92915050565b600a54600090611249906112438461271061148f565b906114f6565b6040519091506000906001600160a01b0387169083908381818185875af1925050503d8060008114611297576040519150601f19603f3d011682016040523d82523d6000602084013e61129c565b606091505b50509050806112dc5760405162461bcd60e51b81526004018080602001828103825260468152602001806117e16046913960600191505060405180910390fd5b6009546000906112f2906112438661271061148f565b6040519091506000906001600160a01b0388169083908381818185875af1925050503d8060008114611340576040519150601f19603f3d011682016040523d82523d6000602084013e611345565b606091505b50509050806113855760405162461bcd60e51b815260040180806020018281038252604281526020018061174f6042913960600191505060405180910390fd5b600061139b83611395888861154f565b9061154f565b6040519091506000906001600160a01b0389169083908381818185875af1925050503d80600081146113e9576040519150601f19603f3d011682016040523d82523d6000602084013e6113ee565b606091505b505090508061142e5760405162461bcd60e51b81526004018080602001828103825260468152602001806118ed6046913960600191505060405180910390fd5b896001600160a01b0316886001600160a01b03168a6001600160a01b03167f2f790d1ddfc2a1fd18dba953bed05754acf42fc093d43bccf7472655ffeebd098a6040518082815260200191505060405180910390a450505050505050505050565b60008082116114e5576040805162461bcd60e51b815260206004820152601a60248201527f536166654d6174683a206469766973696f6e206279207a65726f000000000000604482015290519081900360640190fd5b8183816114ee57fe5b049392505050565b60008261150557506000611227565b8282028284828161151257fe5b04146112245760405162461bcd60e51b815260040180806020018281038252602181526020018061172e6021913960400191505060405180910390fd5b6000828211156115a6576040805162461bcd60e51b815260206004820152601e60248201527f536166654d6174683a207375627472616374696f6e206f766572666c6f770000604482015290519081900360640190fd5b50900390565b828054600181600116156101000203166002900490600052602060002090601f016020900481019282601f106115ed57805160ff191683800117855561161a565b8280016001018555821561161a579182015b8281111561161a5782518255916020019190600101906115ff565b50611626929150611698565b5090565b828054600181600116156101000203166002900490600052602060002090601f016020900481019282601f1061166b5782800160ff1982351617855561161a565b8280016001018555821561161a579182015b8281111561161a57823582559160200191906001019061167d565b5b80821115611626576000815560010161169956fe5374617252656c61792e73746172744368616c6c656e67653a20656e6454696d657374616d70206d75737420626520626967676572207468616e2063757272656e742074696d657374616d702e5374617252656c61792e73746172744368616c6c656e67653a204368616c6c656e676520616c7265616479206578697374732e536166654d6174683a206d756c7469706c69636174696f6e206f766572666c6f775374617252656c61792e5f73706c697446756e6473496e4368616c6c656e6765203a204661696c656420746f2073656e642063726561746f7227732073686172652e5374617252656c61792e73746172744368616c6c656e67653a20596f75206d757374206174206c65617374206d6174636820746865206d696e696d756d20656e7472792066656520796f7520736574215374617252656c61792e5f73706c697446756e6473496e4368616c6c656e6765203a204661696c656420746f2073656e642062656e656669636961727927732073686172652e5374617252656c61792e7265736f6c76654368616c6c656e6765203a206368616c6c656e676520646f6573206e6f74206578697374735374617252656c61792e7265736f6c76654368616c6c656e6765203a206368616c6c656e6765206973207374696c6c20676f696e67206f6e2e5374617252656c61792e6a756d70496e3a20596f75206e6565642061206368616c6c656e676572277320696e7669746174696f6e2e5374617252656c61792e6a756d70496e3a204368616c6c656e676520656e6465642e5374617252656c61792e5f73706c697446756e6473496e4368616c6c656e6765203a204661696c656420746f2073656e6420686967686573744c696b6527732073686172652e5374617252656c61792e6a756d70496e3a20506c65617365206d6174636820746865206d696e696d756d20656e747279206665652ea26469706673582212207fbe8f7c454bce1ba7a134a8d93d762e280d9f48cddbb4c735e834dadfdfa2cb64736f6c634300060c0033",
  "immutableReferences": {},
  "source": "// SPDX-License-Identifier: MIT\n\npragma solidity 0.6.12;\n\nimport \"@openzeppelin/contracts/GSN/Context.sol\"; \nimport \"@openzeppelin/contracts/utils/ReentrancyGuard.sol\";\nimport \"@openzeppelin/contracts/math/SafeMath.sol\";\nimport \"@chainlink/contracts/src/v0.6/ChainlinkClient.sol\";\n\n/**\n * @title The Challenge contract\n * @author The Cool Devs (Lijia, Emma, Ben, Mehrad)\n * @dev a contract facilitating the video relay challenge\n */\ncontract StarRelay is\n    ReentrancyGuard,\n    Context,\n    ChainlinkClient\n{\n    using SafeMath for uint256;\n\n    event NewChallengeStarted(\n      uint256 indexed challengeId, \n      address indexed creator, \n      address indexed beneficiary, \n      uint256 endTimestamp,\n      string ipfsHash\n    );\n\n    event NewChallengerJumpedIn(\n      uint256 indexed challengeId,\n      address indexed challenger,\n      string ipfsHash,\n      uint256 totalFund\n    );\n\n    event ChallengeResolved(\n      uint256 indexed challengeId,\n      address indexed winner,\n      string ipfsHash,\n      uint256 totalFund\n    );\n\n    event FundsSplitted(\n      address indexed beneficiary,\n      address indexed creator,\n      address indexed winner,\n      uint256 totalFund\n    );\n\n    event Invitation(\n      uint256 indexed challengeId,\n      address indexed challenger,\n      address indexed invitee\n    );\n\n    struct Challenge {\n      bool isPublic;\n      bool isActive;\n      uint256 totalFund;\n      uint256 minEntryFee;\n      uint256 endTimestamp;\n      address payable creator;\n      address payable beneficiary;\n      address payable lastChallenger;\n      string lastVideoHash;\n      mapping(address => bool) invitedAddresses;\n    }\n\n    struct Video {\n      string ipfsHash;\n      address creator;\n      uint256 challengeId;\n    }\n\n    address private platform;\n    uint256 public numChallenges = 0;\n    uint256 public creatorPercentage = 300;\n    uint256 public beneficiaryPercentage = 9000;\n    uint256 public winnerPercentage = 700;// maybe we can drop this\n    uint256 constant ONE_HUNDRED_SCALED = 10000;\n\n    mapping(string => Video) public videos;\n    mapping(uint256 => Challenge) public challenges;\n\n    function startChallenge(address payable _beneficiary, address[] calldata _invitedAddresses,\n      uint256 _endTimestamp, uint256 _minEntryFee, string calldata _ipfsHash) \n      nonReentrant public payable returns (uint256) {\n\n        \n        require(now < _endTimestamp, \"StarRelay.startChallenge: endTimestamp must be bigger than current timestamp.\");\n        require(msg.value >= _minEntryFee, \"StarRelay.startChallenge: You must at least match the minimum entry fee you set!\");\n        uint256 challengeId = numChallenges + 1;\n\n        require(challenges[challengeId].creator == address(0), \"StarRelay.startChallenge: Challenge already exists.\");\n\n        challenges[challengeId] = Challenge({\n          creator: _msgSender(),\n          beneficiary: _beneficiary,\n          isPublic: _invitedAddresses.length == 0,\n          endTimestamp: _endTimestamp,\n          minEntryFee: _minEntryFee,\n          totalFund: msg.value,\n          lastChallenger : _msgSender(),\n          lastVideoHash : _ipfsHash,\n          isActive : true\n        });\n\n        // adding invitees to the mapping\n        for(uint256 i =0 ; i< _invitedAddresses.length; i++) {\n          challenges[challengeId].invitedAddresses[_invitedAddresses[i]] = true;\n          emit Invitation(challengeId, _msgSender(), _invitedAddresses[i]);\n        }\n\n        videos[_ipfsHash] = Video({\n          ipfsHash: _ipfsHash,\n          creator: _msgSender(),\n          challengeId: challengeId\n        });\n        numChallenges = numChallenges.add(1);\n\n        emit NewChallengeStarted(challengeId, _msgSender(), _beneficiary, _endTimestamp, _ipfsHash);\n\n        return challengeId;\n\n    }\n\n    function jumpIn(uint256 _challengeId,\n      address[] calldata _invitedAddresses, string calldata _ipfsHash)\n      nonReentrant public payable {\n        \n        Challenge storage challenge = challenges[_challengeId];\n\n        // check if challenge hasn't ended\n        require(now < challenge.endTimestamp, \"StarRelay.jumpIn: Challenge ended.\");\n\n        if (!challenge.isPublic) {\n          // if msg.sender is invited\n          require(challenge.invitedAddresses[_msgSender()], \"StarRelay.jumpIn: You need a challenger's invitation.\");\n        }\n\n        // if there's an entry fee\n        if(challenge.minEntryFee > 0) {\n          require(msg.value >= challenge.minEntryFee, \"StarRelay.jumpIn: Please match the minimum entry fee.\");\n        }\n\n        challenge.totalFund = challenge.totalFund.add(msg.value);\n        challenge.invitedAddresses[_msgSender()] = true;\n        challenge.lastChallenger = _msgSender();\n        challenge.lastVideoHash = _ipfsHash;\n        \n        // adding invitees to the mapping\n        for(uint256 i =0 ; i< _invitedAddresses.length; i++) {\n          challenge.invitedAddresses[_invitedAddresses[i]] = true;\n          emit Invitation(_challengeId, _msgSender(), _invitedAddresses[i]);\n        }\n        videos[_ipfsHash] = Video({\n          ipfsHash: _ipfsHash,\n          creator: _msgSender(),\n          challengeId: _challengeId\n        });\n\n        emit NewChallengerJumpedIn(_challengeId, _msgSender(), _ipfsHash, challenge.totalFund);\n    }\n\n    function resolveChallenge(uint256 _challengeId) payable  public  {\n      Challenge storage challenge = challenges[_challengeId];\n\n      // check if challenge exists\n      require(challenge.creator != address(0), \"StarRelay.resolveChallenge : challenge does not exists\");\n\n      // check if endTimestamp has reached\n      require(now > challenge.endTimestamp && challenge.isActive, \"StarRelay.resolveChallenge : challenge is still going on.\");\n      //TODO : send a chinlink get req to get highest like \n      uint256 totalFund = challenge.totalFund;\n\n      //commented code explaination : originally used to like this but the only way to prevent \n      // resolveing a challenge more than once is to check totalBalance. \n      if(totalFund > 0) {\n        challenge.totalFund = 0;\n        _splitFundsInChallenge(challenge.beneficiary, challenge.creator, challenge.lastChallenger, totalFund);\n      }\n      challenge.isActive = false;\n\n      // TODO: REPLACE IPFS_HASH WITH HARDCODED TEXT BELOW\n      emit ChallengeResolved(_challengeId, challenge.lastChallenger, challenge.lastVideoHash, totalFund);\n    }\n\n    function _splitFundsInChallenge(address payable _beneficiary,\n      address payable _creator, address payable _winner, uint256 _totalFund ) private  {\n        // Calculate Beneficiary's share\n        uint256 beneficiaryShare = _totalFund.div(ONE_HUNDRED_SCALED).mul(beneficiaryPercentage);\n        (bool beneficiaryReceipt, ) = _beneficiary.call{value : beneficiaryShare}(\"\");\n        require(beneficiaryReceipt, \"StarRelay._splitFundsInChallenge : Failed to send beneficiary's share.\");\n\n        // Calculate creator's share\n        uint256 creatorShare = _totalFund.div(ONE_HUNDRED_SCALED).mul(creatorPercentage);\n        (bool creatorReceipt, ) = _creator.call{value : creatorShare}(\"\");\n        require(creatorReceipt, \"StarRelay._splitFundsInChallenge : Failed to send creator's share.\");\n\n        // Calculate winner's share\n        uint256 winnerShare = _totalFund.sub(beneficiaryShare).sub(creatorShare);\n        (bool winnerReceipt, ) = _winner.call{value : winnerShare}(\"\");\n        require(winnerReceipt, \"StarRelay._splitFundsInChallenge : Failed to send highestLike's share.\");\n\n        emit FundsSplitted(_creator, _winner, _beneficiary, _totalFund);\n      }  \n\n}",
  "sourcePath": "/home/emma/Documents/ethdenver2021/denver-contracts/contracts/StarRelay.sol",
  "compiler": {
    "name": "solc",
    "version": "0.6.12+commit.27d51765.Emscripten.clang"
  },
  "schemaVersion": "3.2.3",
  "updatedAt": "2021-02-11T01:55:09.291Z",
  "networkType": "ethereum",
  "devdoc": {
    "author": "The Cool Devs (Lijia, Emma, Ben, Mehrad)",
    "details": "a contract facilitating the video relay challenge",
    "kind": "dev",
    "methods": {},
    "title": "The Challenge contract",
    "version": 1
  },
  "userdoc": {
    "kind": "user",
    "methods": {},
    "version": 1
  }
}